{
  "contractName": "ProduceFactory",
  "abi": [
    {
      "anonymous": false,
      "inputs": [
        {
          "indexed": true,
          "internalType": "contract Produce",
          "name": "produce",
          "type": "address"
        },
        {
          "indexed": true,
          "internalType": "address",
          "name": "owner",
          "type": "address"
        }
      ],
      "name": "ProduceCreated",
      "type": "event"
    },
    {
      "constant": true,
      "inputs": [],
      "name": "produceCount",
      "outputs": [
        {
          "internalType": "uint256",
          "name": "",
          "type": "uint256"
        }
      ],
      "payable": false,
      "stateMutability": "view",
      "type": "function"
    },
    {
      "constant": false,
      "inputs": [
        {
          "internalType": "string",
          "name": "_produceName",
          "type": "string"
        },
        {
          "internalType": "string",
          "name": "_produceDescription",
          "type": "string"
        },
        {
          "internalType": "uint256",
          "name": "_producePrice",
          "type": "uint256"
        },
        {
          "internalType": "string",
          "name": "_url",
          "type": "string"
        },
        {
          "internalType": "string",
          "name": "_imageURL",
          "type": "string"
        },
        {
          "internalType": "address payable",
          "name": "_beneficiary",
          "type": "address"
        }
      ],
      "name": "createProduce",
      "outputs": [],
      "payable": false,
      "stateMutability": "nonpayable",
      "type": "function"
    },
    {
      "constant": true,
      "inputs": [
        {
          "internalType": "uint256",
          "name": "limit",
          "type": "uint256"
        },
        {
          "internalType": "uint256",
          "name": "offset",
          "type": "uint256"
        }
      ],
      "name": "produces",
      "outputs": [
        {
          "internalType": "contract Produce[]",
          "name": "produces",
          "type": "address[]"
        }
      ],
      "payable": false,
      "stateMutability": "view",
      "type": "function"
    }
  ],
  "bytecode": "0x608060405234801561001057600080fd5b506133ec806100206000396000f3fe60806040523480156200001157600080fd5b5060043610620000465760003560e01c806313f6e30d146200004b57806373d836c51462000304578063769428d41462000396575b600080fd5b62000302600480360360c08110156200006357600080fd5b81019080803590602001906401000000008111156200008157600080fd5b8201836020820111156200009457600080fd5b80359060200191846001830284011164010000000083111715620000b757600080fd5b91908080601f016020809104026020016040519081016040528093929190818152602001838380828437600081840152601f19601f820116905080830192505050505050509192919290803590602001906401000000008111156200011b57600080fd5b8201836020820111156200012e57600080fd5b803590602001918460018302840111640100000000831117156200015157600080fd5b91908080601f016020809104026020016040519081016040528093929190818152602001838380828437600081840152601f19601f8201169050808301925050505050505091929192908035906020019092919080359060200190640100000000811115620001bf57600080fd5b820183602082011115620001d257600080fd5b80359060200191846001830284011164010000000083111715620001f557600080fd5b91908080601f016020809104026020016040519081016040528093929190818152602001838380828437600081840152601f19601f820116905080830192505050505050509192919290803590602001906401000000008111156200025957600080fd5b8201836020820111156200026c57600080fd5b803590602001918460018302840111640100000000831117156200028f57600080fd5b91908080601f016020809104026020016040519081016040528093929190818152602001838380828437600081840152601f19601f820116905080830192505050505050509192919290803573ffffffffffffffffffffffffffffffffffffffff169060200190929190505050620003b6565b005b6200033d600480360360408110156200031c57600080fd5b810190808035906020019092919080359060200190929190505050620006e2565b6040518080602001828103825283818151815260200191508051906020019060200280838360005b838110156200038257808201518184015260208101905062000365565b505050509050019250505060405180910390f35b620003a062000879565b6040518082815260200191505060405180910390f35b600086868686863387604051620003cd9062000885565b80806020018060200188815260200180602001806020018773ffffffffffffffffffffffffffffffffffffffff1673ffffffffffffffffffffffffffffffffffffffff1681526020018673ffffffffffffffffffffffffffffffffffffffff1673ffffffffffffffffffffffffffffffffffffffff16815260200185810385528c818151815260200191508051906020019080838360005b838110156200048257808201518184015260208101905062000465565b50505050905090810190601f168015620004b05780820380516001836020036101000a031916815260200191505b5085810384528b818151815260200191508051906020019080838360005b83811015620004eb578082015181840152602081019050620004ce565b50505050905090810190601f168015620005195780820380516001836020036101000a031916815260200191505b50858103835289818151815260200191508051906020019080838360005b838110156200055457808201518184015260208101905062000537565b50505050905090810190601f168015620005825780820380516001836020036101000a031916815260200191505b50858103825288818151815260200191508051906020019080838360005b83811015620005bd578082015181840152602081019050620005a0565b50505050905090810190601f168015620005eb5780820380516001836020036101000a031916815260200191505b509b505050505050505050505050604051809103906000f08015801562000616573d6000803e3d6000fd5b50905060008190806001815401808255809150509060018203906000526020600020016000909192909190916101000a81548173ffffffffffffffffffffffffffffffffffffffff021916908373ffffffffffffffffffffffffffffffffffffffff160217905550503373ffffffffffffffffffffffffffffffffffffffff168173ffffffffffffffffffffffffffffffffffffffff167ff45eb06264344e03b9d815de1e34119e7808126bf38b650b1439256713ef8d6360405160405180910390a350505050505050565b6060620006ee62000879565b82111562000764576040517f08c379a00000000000000000000000000000000000000000000000000000000081526004018080602001828103825260148152602001807f6f6666736574206f7574206f6620626f756e647300000000000000000000000081525060200191505060405180910390fd5b6000826200077162000879565b03905083811062000783578362000785565b805b905060148110620007985760146200079a565b805b905080604051908082528060200260200182016040528015620007cc5781602001602082028038833980820191505090505b50915060008090505b818110156200086e57600081850181548110620007ee57fe5b9060005260206000200160009054906101000a900473ffffffffffffffffffffffffffffffffffffffff168382815181106200082657fe5b602002602001019073ffffffffffffffffffffffffffffffffffffffff16908173ffffffffffffffffffffffffffffffffffffffff16815250508080600101915050620007d5565b508191505092915050565b60008080549050905090565b612b2480620008948339019056fe60806040523480156200001157600080fd5b5060405162002b2438038062002b24833981810160405260e08110156200003757600080fd5b81019080805160405193929190846401000000008211156200005857600080fd5b838201915060208201858111156200006f57600080fd5b82518660018202830111640100000000821117156200008d57600080fd5b8083526020830192505050908051906020019080838360005b83811015620000c3578082015181840152602081019050620000a6565b50505050905090810190601f168015620000f15780820380516001836020036101000a031916815260200191505b50604052602001805160405193929190846401000000008211156200011557600080fd5b838201915060208201858111156200012c57600080fd5b82518660018202830111640100000000821117156200014a57600080fd5b8083526020830192505050908051906020019080838360005b838110156200018057808201518184015260208101905062000163565b50505050905090810190601f168015620001ae5780820380516001836020036101000a031916815260200191505b506040526020018051906020019092919080516040519392919084640100000000821115620001dc57600080fd5b83820191506020820185811115620001f357600080fd5b82518660018202830111640100000000821117156200021157600080fd5b8083526020830192505050908051906020019080838360005b83811015620002475780820151818401526020810190506200022a565b50505050905090810190601f168015620002755780820380516001836020036101000a031916815260200191505b50604052602001805160405193929190846401000000008211156200029957600080fd5b83820191506020820185811115620002b057600080fd5b8251866001820283011164010000000082111715620002ce57600080fd5b8083526020830192505050908051906020019080838360005b8381101562000304578082015181840152602081019050620002e7565b50505050905090810190601f168015620003325780820380516001836020036101000a031916815260200191505b506040526020018051906020019092919080519060200190929190505050600062000362620004ca60201b60201c565b9050806000806101000a81548173ffffffffffffffffffffffffffffffffffffffff021916908373ffffffffffffffffffffffffffffffffffffffff1602179055508073ffffffffffffffffffffffffffffffffffffffff16600073ffffffffffffffffffffffffffffffffffffffff167f8be0079c531659141344cd1fd0a4f28419497f9722a3daafe3b4186f6b6457e060405160405180910390a35086600290805190602001906200041892919062000618565b5085600390805190602001906200043192919062000618565b508460048190555083600590805190602001906200045192919062000618565b5082600690805190602001906200046a92919062000618565b506200047c82620004d260201b60201c565b80600860006101000a81548173ffffffffffffffffffffffffffffffffffffffff021916908373ffffffffffffffffffffffffffffffffffffffff16021790555050505050505050620006c7565b600033905090565b600073ffffffffffffffffffffffffffffffffffffffff168173ffffffffffffffffffffffffffffffffffffffff1614156200055a576040517f08c379a000000000000000000000000000000000000000000000000000000000815260040180806020018281038252602681526020018062002afe6026913960400191505060405180910390fd5b8073ffffffffffffffffffffffffffffffffffffffff166000809054906101000a900473ffffffffffffffffffffffffffffffffffffffff1673ffffffffffffffffffffffffffffffffffffffff167f8be0079c531659141344cd1fd0a4f28419497f9722a3daafe3b4186f6b6457e060405160405180910390a3806000806101000a81548173ffffffffffffffffffffffffffffffffffffffff021916908373ffffffffffffffffffffffffffffffffffffffff16021790555050565b828054600181600116156101000203166002900490600052602060002090601f016020900481019282601f106200065b57805160ff19168380011785556200068c565b828001600101855582156200068c579182015b828111156200068b5782518255916020019190600101906200066e565b5b5090506200069b91906200069f565b5090565b620006c491905b80821115620006c0576000816000905550600101620006a6565b5090565b90565b61242780620006d76000396000f3fe608060405260043610620001465760003560e01c8063896e172311620000bb578063a2c7d6fa1162000079578063a2c7d6fa14620007ae578063a503898f14620007dc578063b90497e0146200080a578063cfbd2d7f14620008a0578063f2fde38b14620008ba578063fe290ccb146200090f5762000146565b8063896e172314620004d05780638da5cb5b146200058b5780638f32d59b14620005e55780638fa31a781462000617578063a273079a14620006455762000146565b80634112f9b611620001095780634112f9b614620003b85780635600f04f14620003e65780635758e20f146200047c57806364edfbf014620004aa578063715018a614620004b65762000146565b80630218d30a1462000183578063119cc54f14620002195780631c31f71014620002af578063375b74c3146200030457806338af3eed146200035e575b6200015d34600a546200098090919063ffffffff16565b600a819055506200017b60016009546200098090919063ffffffff16565b600981905550005b3480156200019057600080fd5b506200019b62000a09565b6040518080602001828103825283818151815260200191508051906020019080838360005b83811015620001dd578082015181840152602081019050620001c0565b50505050905090810190601f1680156200020b5780820380516001836020036101000a031916815260200191505b509250505060405180910390f35b3480156200022657600080fd5b506200023162000aab565b6040518080602001828103825283818151815260200191508051906020019080838360005b838110156200027357808201518184015260208101905062000256565b50505050905090810190601f168015620002a15780820380516001836020036101000a031916815260200191505b509250505060405180910390f35b348015620002bc57600080fd5b506200030260048036036020811015620002d557600080fd5b81019080803573ffffffffffffffffffffffffffffffffffffffff16906020019092919050505062000b4d565b005b3480156200031157600080fd5b506200031c62000c0e565b604051808273ffffffffffffffffffffffffffffffffffffffff1673ffffffffffffffffffffffffffffffffffffffff16815260200191505060405180910390f35b3480156200036b57600080fd5b506200037662000c34565b604051808273ffffffffffffffffffffffffffffffffffffffff1673ffffffffffffffffffffffffffffffffffffffff16815260200191505060405180910390f35b348015620003c557600080fd5b50620003d062000c5a565b6040518082815260200191505060405180910390f35b348015620003f357600080fd5b50620003fe62000c60565b6040518080602001828103825283818151815260200191508051906020019080838360005b838110156200044057808201518184015260208101905062000423565b50505050905090810190601f1680156200046e5780820380516001836020036101000a031916815260200191505b509250505060405180910390f35b3480156200048957600080fd5b506200049462000d02565b6040518082815260200191505060405180910390f35b620004b462000d4c565b005b348015620004c357600080fd5b50620004ce62000e7b565b005b348015620004dd57600080fd5b50620004e862000fb7565b604051808060200180602001838103835285818151815260200191508051906020019060200280838360005b838110156200053157808201518184015260208101905062000514565b50505050905001838103825284818151815260200191508051906020019060200280838360005b838110156200057557808201518184015260208101905062000558565b5050505090500194505050505060405180910390f35b3480156200059857600080fd5b50620005a3620010f1565b604051808273ffffffffffffffffffffffffffffffffffffffff1673ffffffffffffffffffffffffffffffffffffffff16815260200191505060405180910390f35b348015620005f257600080fd5b50620005fd6200111a565b604051808215151515815260200191505060405180910390f35b3480156200062457600080fd5b506200062f6200117a565b6040518082815260200191505060405180910390f35b3480156200065257600080fd5b50620007ac600480360360408110156200066b57600080fd5b81019080803590602001906401000000008111156200068957600080fd5b8201836020820111156200069c57600080fd5b80359060200191846001830284011164010000000083111715620006bf57600080fd5b91908080601f016020809104026020016040519081016040528093929190818152602001838380828437600081840152601f19601f820116905080830192505050505050509192919290803590602001906401000000008111156200072357600080fd5b8201836020820111156200073657600080fd5b803590602001918460018302840111640100000000831117156200075957600080fd5b91908080601f016020809104026020016040519081016040528093929190818152602001838380828437600081840152601f19601f82011690508083019250505050505050919291929050505062001180565b005b348015620007bb57600080fd5b50620007c6620013dd565b6040518082815260200191505060405180910390f35b348015620007e957600080fd5b50620007f4620013e3565b6040518082815260200191505060405180910390f35b3480156200081757600080fd5b5062000822620013f0565b6040518080602001828103825283818151815260200191508051906020019080838360005b838110156200086457808201518184015260208101905062000847565b50505050905090810190601f168015620008925780820380516001836020036101000a031916815260200191505b509250505060405180910390f35b348015620008ad57600080fd5b50620008b862001492565b005b348015620008c757600080fd5b506200090d60048036036020811015620008e057600080fd5b81019080803573ffffffffffffffffffffffffffffffffffffffff169060200190929190505050620015d5565b005b3480156200091c57600080fd5b506200092762001660565b6040518080602001828103825283818151815260200191508051906020019060200280838360005b838110156200096c5780820151818401526020810190506200094f565b505050509050019250505060405180910390f35b600080828401905083811015620009ff576040517f08c379a000000000000000000000000000000000000000000000000000000000815260040180806020018281038252601b8152602001807f536166654d6174683a206164646974696f6e206f766572666c6f77000000000081525060200191505060405180910390fd5b8091505092915050565b60038054600181600116156101000203166002900480601f01602080910402602001604051908101604052809291908181526020018280546001816001161561010002031660029004801562000aa35780601f1062000a775761010080835404028352916020019162000aa3565b820191906000526020600020905b81548152906001019060200180831162000a8557829003601f168201915b505050505081565b60028054600181600116156101000203166002900480601f01602080910402602001604051908101604052809291908181526020018280546001816001161561010002031660029004801562000b455780601f1062000b195761010080835404028352916020019162000b45565b820191906000526020600020905b81548152906001019060200180831162000b2757829003601f168201915b505050505081565b62000b576200111a565b62000bca576040517f08c379a00000000000000000000000000000000000000000000000000000000081526004018080602001828103825260208152602001807f4f776e61626c653a2063616c6c6572206973206e6f7420746865206f776e657281525060200191505060405180910390fd5b80600860006101000a81548173ffffffffffffffffffffffffffffffffffffffff021916908373ffffffffffffffffffffffffffffffffffffffff16021790555050565b600760009054906101000a900473ffffffffffffffffffffffffffffffffffffffff1681565b600860009054906101000a900473ffffffffffffffffffffffffffffffffffffffff1681565b60095481565b60058054600181600116156101000203166002900480601f01602080910402602001604051908101604052809291908181526020018280546001816001161561010002031660029004801562000cfa5780601f1062000cce5761010080835404028352916020019162000cfa565b820191906000526020600020905b81548152906001019060200180831162000cdc57829003601f168201915b505050505081565b6000600b60003373ffffffffffffffffffffffffffffffffffffffff1673ffffffffffffffffffffffffffffffffffffffff16815260200190815260200160002080549050905090565b62000d56620018bc565b6040518060400160405280348152602001428152509050600b60003373ffffffffffffffffffffffffffffffffffffffff1673ffffffffffffffffffffffffffffffffffffffff1681526020019081526020016000208190806001815401808255809150509060018203906000526020600020906002020160009091929091909150600082015181600001556020820151816001015550505062000e0634600a546200098090919063ffffffff16565b600a8190555062000e2460016009546200098090919063ffffffff16565b6009819055503373ffffffffffffffffffffffffffffffffffffffff167f98069bda67d1932ba5a88a414bb015d0c5160d704a79120586718b937166d878346040518082815260200191505060405180910390a250565b62000e856200111a565b62000ef8576040517f08c379a00000000000000000000000000000000000000000000000000000000081526004018080602001828103825260208152602001807f4f776e61626c653a2063616c6c6572206973206e6f7420746865206f776e657281525060200191505060405180910390fd5b600073ffffffffffffffffffffffffffffffffffffffff166000809054906101000a900473ffffffffffffffffffffffffffffffffffffffff1673ffffffffffffffffffffffffffffffffffffffff167f8be0079c531659141344cd1fd0a4f28419497f9722a3daafe3b4186f6b6457e060405160405180910390a360008060006101000a81548173ffffffffffffffffffffffffffffffffffffffff021916908373ffffffffffffffffffffffffffffffffffffffff160217905550565b606080600062000fc662000d02565b90508060405190808252806020026020018201604052801562000ff85781602001602082028038833980820191505090505b509250806040519080825280602002602001820160405280156200102b5781602001602082028038833980820191505090505b50915060008090505b81811015620010e5576000600b60003373ffffffffffffffffffffffffffffffffffffffff1673ffffffffffffffffffffffffffffffffffffffff16815260200190815260200160002082815481106200108a57fe5b906000526020600020906002020190508060000154858381518110620010ac57fe5b6020026020010181815250508060010154848381518110620010ca57fe5b60200260200101818152505050808060010191505062001034565b50828292509250509091565b60008060009054906101000a900473ffffffffffffffffffffffffffffffffffffffff16905090565b60008060009054906101000a900473ffffffffffffffffffffffffffffffffffffffff1673ffffffffffffffffffffffffffffffffffffffff166200115e6200176e565b73ffffffffffffffffffffffffffffffffffffffff1614905090565b60045481565b6200118a6200111a565b620011fd576040517f08c379a00000000000000000000000000000000000000000000000000000000081526004018080602001828103825260208152602001807f4f776e61626c653a2063616c6c6572206973206e6f7420746865206f776e657281525060200191505060405180910390fd5b60008282426040516200121090620018d6565b808060200180602001848152602001838103835286818151815260200191508051906020019080838360005b83811015620012595780820151818401526020810190506200123c565b50505050905090810190601f168015620012875780820380516001836020036101000a031916815260200191505b50838103825285818151815260200191508051906020019080838360005b83811015620012c2578082015181840152602081019050620012a5565b50505050905090810190601f168015620012f05780820380516001836020036101000a031916815260200191505b5095505050505050604051809103906000f08015801562001315573d6000803e3d6000fd5b50905060018190806001815401808255809150509060018203906000526020600020016000909192909190916101000a81548173ffffffffffffffffffffffffffffffffffffffff021916908373ffffffffffffffffffffffffffffffffffffffff160217905550503373ffffffffffffffffffffffffffffffffffffffff168173ffffffffffffffffffffffffffffffffffffffff167f0377da0a9dc9d39a18a807e1f2c42b7ee88aa0bad525884cefa7cdd5ada7e4e260405160405180910390a3505050565b600a5481565b6000600180549050905090565b60068054600181600116156101000203166002900480601f0160208091040260200160405190810160405280929190818152602001828054600181600116156101000203166002900480156200148a5780601f106200145e576101008083540402835291602001916200148a565b820191906000526020600020905b8154815290600101906020018083116200146c57829003601f168201915b505050505081565b6200149c6200111a565b6200150f576040517f08c379a00000000000000000000000000000000000000000000000000000000081526004018080602001828103825260208152602001807f4f776e61626c653a2063616c6c6572206973206e6f7420746865206f776e657281525060200191505060405180910390fd5b600030905060008173ffffffffffffffffffffffffffffffffffffffff16319050600860009054906101000a900473ffffffffffffffffffffffffffffffffffffffff1673ffffffffffffffffffffffffffffffffffffffff166108fc829081150290604051600060405180830381858888f1935050505015801562001599573d6000803e3d6000fd5b507f5b6b431d4476a211bb7d41c20d1aab9ae2321deee0d20be3d9fc9b1093fa6e3d816040518082815260200191505060405180910390a15050565b620015df6200111a565b62001652576040517f08c379a00000000000000000000000000000000000000000000000000000000081526004018080602001828103825260208152602001807f4f776e61626c653a2063616c6c6572206973206e6f7420746865206f776e657281525060200191505060405180910390fd5b6200165d8162001776565b50565b606060006200166e620013e3565b90506000600a8211156200168657600a820362001689565b60005b90506000818303905080604051908082528060200260200182016040528015620016c25781602001602082028038833980820191505090505b50935060008090505b818110156200176457600181840181548110620016e457fe5b9060005260206000200160009054906101000a900473ffffffffffffffffffffffffffffffffffffffff168582815181106200171c57fe5b602002602001019073ffffffffffffffffffffffffffffffffffffffff16908173ffffffffffffffffffffffffffffffffffffffff16815250508080600101915050620016cb565b5083935050505090565b600033905090565b600073ffffffffffffffffffffffffffffffffffffffff168173ffffffffffffffffffffffffffffffffffffffff161415620017fe576040517f08c379a0000000000000000000000000000000000000000000000000000000008152600401808060200182810382526026815260200180620023cd6026913960400191505060405180910390fd5b8073ffffffffffffffffffffffffffffffffffffffff166000809054906101000a900473ffffffffffffffffffffffffffffffffffffffff1673ffffffffffffffffffffffffffffffffffffffff167f8be0079c531659141344cd1fd0a4f28419497f9722a3daafe3b4186f6b6457e060405160405180910390a3806000806101000a81548173ffffffffffffffffffffffffffffffffffffffff021916908373ffffffffffffffffffffffffffffffffffffffff16021790555050565b604051806040016040528060008152602001600081525090565b610ae880620018e58339019056fe608060405234801561001057600080fd5b50604051610ae8380380610ae88339818101604052606081101561003357600080fd5b810190808051604051939291908464010000000082111561005357600080fd5b8382019150602082018581111561006957600080fd5b825186600182028301116401000000008211171561008657600080fd5b8083526020830192505050908051906020019080838360005b838110156100ba57808201518184015260208101905061009f565b50505050905090810190601f1680156100e75780820380516001836020036101000a031916815260200191505b506040526020018051604051939291908464010000000082111561010a57600080fd5b8382019150602082018581111561012057600080fd5b825186600182028301116401000000008211171561013d57600080fd5b8083526020830192505050908051906020019080838360005b83811015610171578082015181840152602081019050610156565b50505050905090810190601f16801561019e5780820380516001836020036101000a031916815260200191505b506040526020018051906020019092919050505060006101c261029d60201b60201c565b9050806000806101000a81548173ffffffffffffffffffffffffffffffffffffffff021916908373ffffffffffffffffffffffffffffffffffffffff1602179055508073ffffffffffffffffffffffffffffffffffffffff16600073ffffffffffffffffffffffffffffffffffffffff167f8be0079c531659141344cd1fd0a4f28419497f9722a3daafe3b4186f6b6457e060405160405180910390a35082600190805190602001906102769291906102a5565b50816002908051906020019061028d9291906102a5565b508060038190555050505061034a565b600033905090565b828054600181600116156101000203166002900490600052602060002090601f016020900481019282601f106102e657805160ff1916838001178555610314565b82800160010185558215610314579182015b828111156103135782518255916020019190600101906102f8565b5b5090506103219190610325565b5090565b61034791905b8082111561034357600081600090555060010161032b565b5090565b90565b61078f806103596000396000f3fe608060405234801561001057600080fd5b506004361061007d5760003560e01c80638da5cb5b1161005b5780638da5cb5b1461012d5780638f32d59b14610177578063d280518914610199578063f2fde38b1461021c5761007d565b8063323046b114610082578063715018a6146100a057806376ffbe93146100aa575b600080fd5b61008a610260565b6040518082815260200191505060405180910390f35b6100a8610266565b005b6100b261039f565b6040518080602001828103825283818151815260200191508051906020019080838360005b838110156100f25780820151818401526020810190506100d7565b50505050905090810190601f16801561011f5780820380516001836020036101000a031916815260200191505b509250505060405180910390f35b61013561043d565b604051808273ffffffffffffffffffffffffffffffffffffffff1673ffffffffffffffffffffffffffffffffffffffff16815260200191505060405180910390f35b61017f610466565b604051808215151515815260200191505060405180910390f35b6101a16104c4565b6040518080602001828103825283818151815260200191508051906020019080838360005b838110156101e15780820151818401526020810190506101c6565b50505050905090810190601f16801561020e5780820380516001836020036101000a031916815260200191505b509250505060405180910390f35b61025e6004803603602081101561023257600080fd5b81019080803573ffffffffffffffffffffffffffffffffffffffff169060200190929190505050610562565b005b60035481565b61026e610466565b6102e0576040517f08c379a00000000000000000000000000000000000000000000000000000000081526004018080602001828103825260208152602001807f4f776e61626c653a2063616c6c6572206973206e6f7420746865206f776e657281525060200191505060405180910390fd5b600073ffffffffffffffffffffffffffffffffffffffff166000809054906101000a900473ffffffffffffffffffffffffffffffffffffffff1673ffffffffffffffffffffffffffffffffffffffff167f8be0079c531659141344cd1fd0a4f28419497f9722a3daafe3b4186f6b6457e060405160405180910390a360008060006101000a81548173ffffffffffffffffffffffffffffffffffffffff021916908373ffffffffffffffffffffffffffffffffffffffff160217905550565b60028054600181600116156101000203166002900480601f0160208091040260200160405190810160405280929190818152602001828054600181600116156101000203166002900480156104355780601f1061040a57610100808354040283529160200191610435565b820191906000526020600020905b81548152906001019060200180831161041857829003601f168201915b505050505081565b60008060009054906101000a900473ffffffffffffffffffffffffffffffffffffffff16905090565b60008060009054906101000a900473ffffffffffffffffffffffffffffffffffffffff1673ffffffffffffffffffffffffffffffffffffffff166104a86105e8565b73ffffffffffffffffffffffffffffffffffffffff1614905090565b60018054600181600116156101000203166002900480601f01602080910402602001604051908101604052809291908181526020018280546001816001161561010002031660029004801561055a5780601f1061052f5761010080835404028352916020019161055a565b820191906000526020600020905b81548152906001019060200180831161053d57829003601f168201915b505050505081565b61056a610466565b6105dc576040517f08c379a00000000000000000000000000000000000000000000000000000000081526004018080602001828103825260208152602001807f4f776e61626c653a2063616c6c6572206973206e6f7420746865206f776e657281525060200191505060405180910390fd5b6105e5816105f0565b50565b600033905090565b600073ffffffffffffffffffffffffffffffffffffffff168173ffffffffffffffffffffffffffffffffffffffff161415610676576040517f08c379a00000000000000000000000000000000000000000000000000000000081526004018080602001828103825260268152602001806107356026913960400191505060405180910390fd5b8073ffffffffffffffffffffffffffffffffffffffff166000809054906101000a900473ffffffffffffffffffffffffffffffffffffffff1673ffffffffffffffffffffffffffffffffffffffff167f8be0079c531659141344cd1fd0a4f28419497f9722a3daafe3b4186f6b6457e060405160405180910390a3806000806101000a81548173ffffffffffffffffffffffffffffffffffffffff021916908373ffffffffffffffffffffffffffffffffffffffff1602179055505056fe4f776e61626c653a206e6577206f776e657220697320746865207a65726f2061646472657373a265627a7a72315820a29b10ad9627c86533ae9bdf9a2c8cd27870a3381a156d632f46886bd58ad88064736f6c634300051000324f776e61626c653a206e6577206f776e657220697320746865207a65726f2061646472657373a265627a7a72315820b2ca502891c2d4ff3e6a10ca05e2d515e728746512f11e4fea3a5fb957b1f4e064736f6c634300051000324f776e61626c653a206e6577206f776e657220697320746865207a65726f2061646472657373a265627a7a7231582002c22044749d501cf26a16f4ce1003e1c63de70133df424d713ccdce5b42db7864736f6c63430005100032",
  "source": "pragma solidity >0.4.23 <0.7.0;\n\nimport \"./Produce.sol\";\n\ncontract ProduceFactory\n{\n\t// the maximum number of produces can be returned from produces function\n\tuint256 constant maxLimit = 20;\n\n\tProduce[] private _produces;\n\n\tevent ProduceCreated(Produce indexed produce, address indexed owner);\n\n\tfunction produceCount() public view returns(uint256) \n\t{\n\t\treturn _produces.length;\n\t}\n\n\tfunction createProduce\n\t(\n\t\tstring memory _produceName, \n        string memory _produceDescription, \n        uint256 _producePrice, \n        //uint256 _produceQuantity, \n        string memory _url,\n        string memory _imageURL,\n        address payable _beneficiary\n\t)\n\t\tpublic\n\t{\n\t\tProduce produce = new Produce(\n\t\t\t_produceName,\n\t\t\t_produceDescription,\n\t\t\t_producePrice,\n\t\t\t//_produceQuantity,\n\t\t\t_url,\n\t\t\t_imageURL,\n\t\t\tmsg.sender,\n\t\t\t_beneficiary\n\t\t);\n\t\t_produces.push(produce);\n\t\temit ProduceCreated(produce, msg.sender);\n\t}\n\n\tfunction produces(uint256 limit, uint256 offset) public view returns(Produce[] memory produces)\n\t{\n\t\trequire(offset <= produceCount(), \"offset out of bounds\");\n\n\t\t// size should be the smallest among count, limit and max limit\n\t\tuint256 size = produceCount() - offset;\n\t\tsize = size < limit ? size : limit;\n\t\tsize = size < maxLimit ? size : maxLimit;\n\n\t\tproduces = new Produce[](size);\n\t\tfor(uint256 i = 0; i < size; i++) {\n\t\t\tproduces[i] = _produces[offset + i];\n\t\t}\n\t\treturn produces;\n\t}\n}",
  "sourcePath": "/Users/congshuwang/DAPP/OrganicExchange/contracts/ProduceFactory.sol",
  "compiler": {
    "name": "solc",
    "version": "0.5.16+commit.9c3226ce.Emscripten.clang"
  },
  "schemaVersion": "3.2.0",
  "updatedAt": "2020-07-23T05:17:08.226Z",
  "networkType": "ethereum",
  "devdoc": {
    "methods": {}
  },
  "userdoc": {
    "methods": {}
  }
}